{
  "_format": "hh-sol-artifact-1",
  "contractName": "MonadDogeNFT",
  "sourceName": "contracts/NFT.sol",
  "abi": [
    {
      "inputs": [
        {
          "internalType": "uint256",
          "name": "_maxSupply",
          "type": "uint256"
        },
        {
          "internalType": "string",
          "name": "baseURI_",
          "type": "string"
        }
      ],
      "stateMutability": "nonpayable",
      "type": "constructor"
    },
    {
      "inputs": [
        {
          "internalType": "address",
          "name": "sender",
          "type": "address"
        },
        {
          "internalType": "uint256",
          "name": "tokenId",
          "type": "uint256"
        },
        {
          "internalType": "address",
          "name": "owner",
          "type": "address"
        }
      ],
      "name": "ERC721IncorrectOwner",
      "type": "error"
    },
    {
      "inputs": [
        {
          "internalType": "address",
          "name": "operator",
          "type": "address"
        },
        {
          "internalType": "uint256",
          "name": "tokenId",
          "type": "uint256"
        }
      ],
      "name": "ERC721InsufficientApproval",
      "type": "error"
    },
    {
      "inputs": [
        {
          "internalType": "address",
          "name": "approver",
          "type": "address"
        }
      ],
      "name": "ERC721InvalidApprover",
      "type": "error"
    },
    {
      "inputs": [
        {
          "internalType": "address",
          "name": "operator",
          "type": "address"
        }
      ],
      "name": "ERC721InvalidOperator",
      "type": "error"
    },
    {
      "inputs": [
        {
          "internalType": "address",
          "name": "owner",
          "type": "address"
        }
      ],
      "name": "ERC721InvalidOwner",
      "type": "error"
    },
    {
      "inputs": [
        {
          "internalType": "address",
          "name": "receiver",
          "type": "address"
        }
      ],
      "name": "ERC721InvalidReceiver",
      "type": "error"
    },
    {
      "inputs": [
        {
          "internalType": "address",
          "name": "sender",
          "type": "address"
        }
      ],
      "name": "ERC721InvalidSender",
      "type": "error"
    },
    {
      "inputs": [
        {
          "internalType": "uint256",
          "name": "tokenId",
          "type": "uint256"
        }
      ],
      "name": "ERC721NonexistentToken",
      "type": "error"
    },
    {
      "inputs": [
        {
          "internalType": "address",
          "name": "owner",
          "type": "address"
        }
      ],
      "name": "OwnableInvalidOwner",
      "type": "error"
    },
    {
      "inputs": [
        {
          "internalType": "address",
          "name": "account",
          "type": "address"
        }
      ],
      "name": "OwnableUnauthorizedAccount",
      "type": "error"
    },
    {
      "anonymous": false,
      "inputs": [
        {
          "indexed": true,
          "internalType": "address",
          "name": "owner",
          "type": "address"
        },
        {
          "indexed": true,
          "internalType": "address",
          "name": "approved",
          "type": "address"
        },
        {
          "indexed": true,
          "internalType": "uint256",
          "name": "tokenId",
          "type": "uint256"
        }
      ],
      "name": "Approval",
      "type": "event"
    },
    {
      "anonymous": false,
      "inputs": [
        {
          "indexed": true,
          "internalType": "address",
          "name": "owner",
          "type": "address"
        },
        {
          "indexed": true,
          "internalType": "address",
          "name": "operator",
          "type": "address"
        },
        {
          "indexed": false,
          "internalType": "bool",
          "name": "approved",
          "type": "bool"
        }
      ],
      "name": "ApprovalForAll",
      "type": "event"
    },
    {
      "anonymous": false,
      "inputs": [
        {
          "indexed": false,
          "internalType": "uint256",
          "name": "_fromTokenId",
          "type": "uint256"
        },
        {
          "indexed": false,
          "internalType": "uint256",
          "name": "_toTokenId",
          "type": "uint256"
        }
      ],
      "name": "BatchMetadataUpdate",
      "type": "event"
    },
    {
      "anonymous": false,
      "inputs": [
        {
          "indexed": false,
          "internalType": "uint256",
          "name": "_tokenId",
          "type": "uint256"
        }
      ],
      "name": "MetadataUpdate",
      "type": "event"
    },
    {
      "anonymous": false,
      "inputs": [
        {
          "indexed": true,
          "internalType": "address",
          "name": "previousOwner",
          "type": "address"
        },
        {
          "indexed": true,
          "internalType": "address",
          "name": "newOwner",
          "type": "address"
        }
      ],
      "name": "OwnershipTransferred",
      "type": "event"
    },
    {
      "anonymous": false,
      "inputs": [
        {
          "indexed": true,
          "internalType": "address",
          "name": "from",
          "type": "address"
        },
        {
          "indexed": true,
          "internalType": "address",
          "name": "to",
          "type": "address"
        },
        {
          "indexed": true,
          "internalType": "uint256",
          "name": "tokenId",
          "type": "uint256"
        }
      ],
      "name": "Transfer",
      "type": "event"
    },
    {
      "inputs": [
        {
          "internalType": "address",
          "name": "to",
          "type": "address"
        },
        {
          "internalType": "uint256",
          "name": "tokenId",
          "type": "uint256"
        }
      ],
      "name": "approve",
      "outputs": [],
      "stateMutability": "nonpayable",
      "type": "function"
    },
    {
      "inputs": [
        {
          "internalType": "address",
          "name": "owner",
          "type": "address"
        }
      ],
      "name": "balanceOf",
      "outputs": [
        {
          "internalType": "uint256",
          "name": "",
          "type": "uint256"
        }
      ],
      "stateMutability": "view",
      "type": "function"
    },
    {
      "inputs": [
        {
          "internalType": "uint256",
          "name": "tokenId",
          "type": "uint256"
        }
      ],
      "name": "getApproved",
      "outputs": [
        {
          "internalType": "address",
          "name": "",
          "type": "address"
        }
      ],
      "stateMutability": "view",
      "type": "function"
    },
    {
      "inputs": [
        {
          "internalType": "address",
          "name": "owner",
          "type": "address"
        },
        {
          "internalType": "address",
          "name": "operator",
          "type": "address"
        }
      ],
      "name": "isApprovedForAll",
      "outputs": [
        {
          "internalType": "bool",
          "name": "",
          "type": "bool"
        }
      ],
      "stateMutability": "view",
      "type": "function"
    },
    {
      "inputs": [],
      "name": "maxSupply",
      "outputs": [
        {
          "internalType": "uint256",
          "name": "",
          "type": "uint256"
        }
      ],
      "stateMutability": "view",
      "type": "function"
    },
    {
      "inputs": [
        {
          "internalType": "uint256",
          "name": "quantity",
          "type": "uint256"
        }
      ],
      "name": "mintNFT",
      "outputs": [],
      "stateMutability": "payable",
      "type": "function"
    },
    {
      "inputs": [],
      "name": "mintPrice",
      "outputs": [
        {
          "internalType": "uint256",
          "name": "",
          "type": "uint256"
        }
      ],
      "stateMutability": "view",
      "type": "function"
    },
    {
      "inputs": [],
      "name": "name",
      "outputs": [
        {
          "internalType": "string",
          "name": "",
          "type": "string"
        }
      ],
      "stateMutability": "view",
      "type": "function"
    },
    {
      "inputs": [],
      "name": "owner",
      "outputs": [
        {
          "internalType": "address",
          "name": "",
          "type": "address"
        }
      ],
      "stateMutability": "view",
      "type": "function"
    },
    {
      "inputs": [
        {
          "internalType": "uint256",
          "name": "tokenId",
          "type": "uint256"
        }
      ],
      "name": "ownerOf",
      "outputs": [
        {
          "internalType": "address",
          "name": "",
          "type": "address"
        }
      ],
      "stateMutability": "view",
      "type": "function"
    },
    {
      "inputs": [],
      "name": "renounceOwnership",
      "outputs": [],
      "stateMutability": "nonpayable",
      "type": "function"
    },
    {
      "inputs": [
        {
          "internalType": "address",
          "name": "from",
          "type": "address"
        },
        {
          "internalType": "address",
          "name": "to",
          "type": "address"
        },
        {
          "internalType": "uint256",
          "name": "tokenId",
          "type": "uint256"
        }
      ],
      "name": "safeTransferFrom",
      "outputs": [],
      "stateMutability": "nonpayable",
      "type": "function"
    },
    {
      "inputs": [
        {
          "internalType": "address",
          "name": "from",
          "type": "address"
        },
        {
          "internalType": "address",
          "name": "to",
          "type": "address"
        },
        {
          "internalType": "uint256",
          "name": "tokenId",
          "type": "uint256"
        },
        {
          "internalType": "bytes",
          "name": "data",
          "type": "bytes"
        }
      ],
      "name": "safeTransferFrom",
      "outputs": [],
      "stateMutability": "nonpayable",
      "type": "function"
    },
    {
      "inputs": [
        {
          "internalType": "address",
          "name": "operator",
          "type": "address"
        },
        {
          "internalType": "bool",
          "name": "approved",
          "type": "bool"
        }
      ],
      "name": "setApprovalForAll",
      "outputs": [],
      "stateMutability": "nonpayable",
      "type": "function"
    },
    {
      "inputs": [
        {
          "internalType": "string",
          "name": "newBaseURI",
          "type": "string"
        }
      ],
      "name": "setBaseURI",
      "outputs": [],
      "stateMutability": "nonpayable",
      "type": "function"
    },
    {
      "inputs": [
        {
          "internalType": "uint256",
          "name": "newMaxSupply",
          "type": "uint256"
        }
      ],
      "name": "setMaxSupply",
      "outputs": [],
      "stateMutability": "nonpayable",
      "type": "function"
    },
    {
      "inputs": [
        {
          "internalType": "bytes4",
          "name": "interfaceId",
          "type": "bytes4"
        }
      ],
      "name": "supportsInterface",
      "outputs": [
        {
          "internalType": "bool",
          "name": "",
          "type": "bool"
        }
      ],
      "stateMutability": "view",
      "type": "function"
    },
    {
      "inputs": [],
      "name": "symbol",
      "outputs": [
        {
          "internalType": "string",
          "name": "",
          "type": "string"
        }
      ],
      "stateMutability": "view",
      "type": "function"
    },
    {
      "inputs": [
        {
          "internalType": "uint256",
          "name": "tokenId",
          "type": "uint256"
        }
      ],
      "name": "tokenURI",
      "outputs": [
        {
          "internalType": "string",
          "name": "",
          "type": "string"
        }
      ],
      "stateMutability": "view",
      "type": "function"
    },
    {
      "inputs": [
        {
          "internalType": "address",
          "name": "from",
          "type": "address"
        },
        {
          "internalType": "address",
          "name": "to",
          "type": "address"
        },
        {
          "internalType": "uint256",
          "name": "tokenId",
          "type": "uint256"
        }
      ],
      "name": "transferFrom",
      "outputs": [],
      "stateMutability": "nonpayable",
      "type": "function"
    },
    {
      "inputs": [
        {
          "internalType": "address",
          "name": "newOwner",
          "type": "address"
        }
      ],
      "name": "transferOwnership",
      "outputs": [],
      "stateMutability": "nonpayable",
      "type": "function"
    }
  ],
  "bytecode": "0x608060405234801561001057600080fd5b50604051611d02380380611d0283398101604081905261002f91610148565b33604051806040016040528060098152602001684d6f6e6164446f676560b81b815250604051806040016040528060058152602001644d444f474560d81b815250816000908161007f91906102a8565b50600161008c82826102a8565b5050506001600160a01b0381166100bd57604051631e4fbdf760e01b81526000600482015260240160405180910390fd5b6100c6816100e0565b506008829055600a6100d882826102a8565b505050610366565b600780546001600160a01b038381166001600160a01b0319831681179093556040519116919082907f8be0079c531659141344cd1fd0a4f28419497f9722a3daafe3b4186f6b6457e090600090a35050565b634e487b7160e01b600052604160045260246000fd5b6000806040838503121561015b57600080fd5b825160208401519092506001600160401b0381111561017957600080fd5b8301601f8101851361018a57600080fd5b80516001600160401b038111156101a3576101a3610132565b604051601f8201601f19908116603f011681016001600160401b03811182821017156101d1576101d1610132565b6040528181528282016020018710156101e957600080fd5b60005b82811015610208576020818501810151838301820152016101ec565b506000602083830101528093505050509250929050565b600181811c9082168061023357607f821691505b60208210810361025357634e487b7160e01b600052602260045260246000fd5b50919050565b601f8211156102a357806000526020600020601f840160051c810160208510156102805750805b601f840160051c820191505b818110156102a0576000815560010161028c565b50505b505050565b81516001600160401b038111156102c1576102c1610132565b6102d5816102cf845461021f565b84610259565b6020601f82116001811461030957600083156102f15750848201515b600019600385901b1c1916600184901b1784556102a0565b600084815260208120601f198516915b828110156103395787850151825560209485019460019092019101610319565b50848210156103575786840151600019600387901b60f8161c191681555b50505050600190811b01905550565b61198d806103756000396000f3fe60806040526004361061012a5760003560e01c806370a08231116100ab578063a22cb4651161006f578063a22cb46514610325578063b88d4fde14610345578063c87b56dd14610365578063d5abeb0114610385578063e985e9c51461039b578063f2fde38b146103bb57600080fd5b806370a08231146102aa578063715018a6146102ca5780638da5cb5b146102df57806392642744146102fd57806395d89b411461031057600080fd5b806342842e0e116100f257806342842e0e1461020057806355f804b3146102205780636352211e146102405780636817c76c146102605780636f8b44b01461028a57600080fd5b806301ffc9a71461012f57806306fdde0314610164578063081812fc14610186578063095ea7b3146101be57806323b872dd146101e0575b600080fd5b34801561013b57600080fd5b5061014f61014a366004611339565b6103db565b60405190151581526020015b60405180910390f35b34801561017057600080fd5b50610179610406565b60405161015b91906113a6565b34801561019257600080fd5b506101a66101a13660046113b9565b610498565b6040516001600160a01b03909116815260200161015b565b3480156101ca57600080fd5b506101de6101d93660046113ee565b6104c1565b005b3480156101ec57600080fd5b506101de6101fb366004611418565b6104d0565b34801561020c57600080fd5b506101de61021b366004611418565b610560565b34801561022c57600080fd5b506101de61023b3660046114e5565b610580565b34801561024c57600080fd5b506101a661025b3660046113b9565b610594565b34801561026c57600080fd5b5061027c670de0b6b3a764000081565b60405190815260200161015b565b34801561029657600080fd5b506101de6102a53660046113b9565b61059f565b3480156102b657600080fd5b5061027c6102c536600461152e565b61060e565b3480156102d657600080fd5b506101de610656565b3480156102eb57600080fd5b506007546001600160a01b03166101a6565b6101de61030b3660046113b9565b61066a565b34801561031c57600080fd5b50610179610807565b34801561033157600080fd5b506101de610340366004611549565b610816565b34801561035157600080fd5b506101de610360366004611585565b610821565b34801561037157600080fd5b506101796103803660046113b9565b610839565b34801561039157600080fd5b5061027c60085481565b3480156103a757600080fd5b5061014f6103b6366004611601565b61093d565b3480156103c757600080fd5b506101de6103d636600461152e565b61096b565b60006001600160e01b03198216632483248360e11b14806104005750610400826109a9565b92915050565b60606000805461041590611634565b80601f016020809104026020016040519081016040528092919081815260200182805461044190611634565b801561048e5780601f106104635761010080835404028352916020019161048e565b820191906000526020600020905b81548152906001019060200180831161047157829003601f168201915b5050505050905090565b60006104a3826109f9565b506000828152600460205260409020546001600160a01b0316610400565b6104cc828233610a32565b5050565b6001600160a01b0382166104ff57604051633250574960e11b8152600060048201526024015b60405180910390fd5b600061050c838333610a3f565b9050836001600160a01b0316816001600160a01b03161461055a576040516364283d7b60e01b81526001600160a01b03808616600483015260248201849052821660448201526064016104f6565b50505050565b61057b83838360405180602001604052806000815250610821565b505050565b610588610b38565b600a6104cc82826116b5565b6000610400826109f9565b6105a7610b38565b6009548110156106095760405162461bcd60e51b815260206004820152602760248201527f43616e6e6f7420736574206d617820737570706c792062656c6f77206d696e746044820152666564204e46547360c81b60648201526084016104f6565b600855565b60006001600160a01b03821661063a576040516322718ad960e21b8152600060048201526024016104f6565b506001600160a01b031660009081526003602052604090205490565b61065e610b38565b6106686000610b65565b565b600081116106ba5760405162461bcd60e51b815260206004820152601860248201527f4d757374206d696e74206174206c656173742031204e4654000000000000000060448201526064016104f6565b600854816009546106cb919061178a565b111561070e5760405162461bcd60e51b815260206004820152601260248201527145786365656473206d617820737570706c7960701b60448201526064016104f6565b61072081670de0b6b3a764000061179d565b3410156107645760405162461bcd60e51b8152602060048201526012602482015271496e73756666696369656e742066756e647360701b60448201526064016104f6565b60005b818110156107cd57600980549081906000610781836117b4565b91905055506107903382610bb7565b6107c481600a61079f84610bd1565b6040516020016107b09291906117cd565b604051602081830303815290604052610cdd565b50600101610767565b506007546040516001600160a01b03909116903480156108fc02916000818181858888f193505050501580156104cc573d6000803e3d6000fd5b60606001805461041590611634565b6104cc338383610d2d565b61082c8484846104d0565b61055a3385858585610dcc565b6060610844826109f9565b506000828152600660205260408120805461085e90611634565b80601f016020809104026020016040519081016040528092919081815260200182805461088a90611634565b80156108d75780601f106108ac576101008083540402835291602001916108d7565b820191906000526020600020905b8154815290600101906020018083116108ba57829003601f168201915b5050505050905060006108e8610ef7565b905080516000036108fa575092915050565b81511561092c578082604051602001610914929190611863565b60405160208183030381529060405292505050919050565b61093584610f06565b949350505050565b6001600160a01b03918216600090815260056020908152604080832093909416825291909152205460ff1690565b610973610b38565b6001600160a01b03811661099d57604051631e4fbdf760e01b8152600060048201526024016104f6565b6109a681610b65565b50565b60006001600160e01b031982166380ac58cd60e01b14806109da57506001600160e01b03198216635b5e139f60e01b145b8061040057506301ffc9a760e01b6001600160e01b0319831614610400565b6000818152600260205260408120546001600160a01b03168061040057604051637e27328960e01b8152600481018490526024016104f6565b61057b8383836001610f6e565b6000828152600260205260408120546001600160a01b0390811690831615610a6c57610a6c818486611074565b6001600160a01b03811615610aaa57610a89600085600080610f6e565b6001600160a01b038116600090815260036020526040902080546000190190555b6001600160a01b03851615610ad9576001600160a01b0385166000908152600360205260409020805460010190555b60008481526002602052604080822080546001600160a01b0319166001600160a01b0389811691821790925591518793918516917fddf252ad1be2c89b69c2b068fc378daa952ba7f163c4a11628f55a4df523b3ef91a4949350505050565b6007546001600160a01b031633146106685760405163118cdaa760e01b81523360048201526024016104f6565b600780546001600160a01b038381166001600160a01b0319831681179093556040519116919082907f8be0079c531659141344cd1fd0a4f28419497f9722a3daafe3b4186f6b6457e090600090a35050565b6104cc8282604051806020016040528060008152506110d8565b606081600003610bf85750506040805180820190915260018152600360fc1b602082015290565b8160005b8115610c225780610c0c816117b4565b9150610c1b9050600a836118a8565b9150610bfc565b60008167ffffffffffffffff811115610c3d57610c3d611455565b6040519080825280601f01601f191660200182016040528015610c67576020820181803683370190505b508593509050815b8315610cd457610c80600a856118bc565b610c8b90603061178a565b60f81b82610c98836118d0565b92508281518110610cab57610cab6118e7565b60200101906001600160f81b031916908160001a905350610ccd600a856118a8565b9350610c6f565b50949350505050565b6000828152600660205260409020610cf582826116b5565b506040518281527ff8e1a15aba9398e019f0b49df1a4fde98ee17ae345cb5f6b5e2c27f5033e8ce79060200160405180910390a15050565b6001600160a01b038216610d5f57604051630b61174360e31b81526001600160a01b03831660048201526024016104f6565b6001600160a01b03838116600081815260056020908152604080832094871680845294825291829020805460ff191686151590811790915591519182527f17307eab39ab6107e8899845ad3d59bd9653f200f220920489ca2b5937696c31910160405180910390a3505050565b6001600160a01b0383163b15610ef057604051630a85bd0160e11b81526001600160a01b0384169063150b7a0290610e0e9088908890879087906004016118fd565b6020604051808303816000875af1925050508015610e49575060408051601f3d908101601f19168201909252610e469181019061193a565b60015b610eb2573d808015610e77576040519150601f19603f3d011682016040523d82523d6000602084013e610e7c565b606091505b508051600003610eaa57604051633250574960e11b81526001600160a01b03851660048201526024016104f6565b805181602001fd5b6001600160e01b03198116630a85bd0160e11b14610eee57604051633250574960e11b81526001600160a01b03851660048201526024016104f6565b505b5050505050565b6060600a805461041590611634565b6060610f11826109f9565b506000610f1c610ef7565b90506000815111610f3c5760405180602001604052806000815250610f67565b80610f46846110f0565b604051602001610f57929190611863565b6040516020818303038152906040525b9392505050565b8080610f8257506001600160a01b03821615155b15611044576000610f92846109f9565b90506001600160a01b03831615801590610fbe5750826001600160a01b0316816001600160a01b031614155b8015610fd15750610fcf818461093d565b155b15610ffa5760405163a9fbf51f60e01b81526001600160a01b03841660048201526024016104f6565b81156110425783856001600160a01b0316826001600160a01b03167f8c5be1e5ebec7d5bd14f71427d1e84f3dd0314c0f7b2291e5b200ac8c7c3b92560405160405180910390a45b505b5050600090815260046020526040902080546001600160a01b0319166001600160a01b0392909216919091179055565b61107f838383611183565b61057b576001600160a01b0383166110ad57604051637e27328960e01b8152600481018290526024016104f6565b60405163177e802f60e01b81526001600160a01b0383166004820152602481018290526044016104f6565b6110e283836111e6565b61057b336000858585610dcc565b606060006110fd8361124b565b600101905060008167ffffffffffffffff81111561111d5761111d611455565b6040519080825280601f01601f191660200182016040528015611147576020820181803683370190505b5090508181016020015b600019016f181899199a1a9b1b9c1cb0b131b232b360811b600a86061a8153600a850494508461115157509392505050565b60006001600160a01b038316158015906109355750826001600160a01b0316846001600160a01b031614806111bd57506111bd848461093d565b806109355750506000908152600460205260409020546001600160a01b03908116911614919050565b6001600160a01b03821661121057604051633250574960e11b8152600060048201526024016104f6565b600061121e83836000610a3f565b90506001600160a01b0381161561057b576040516339e3563760e11b8152600060048201526024016104f6565b60008072184f03e93ff9f4daa797ed6e38ed64bf6a1f0160401b831061128a5772184f03e93ff9f4daa797ed6e38ed64bf6a1f0160401b830492506040015b6d04ee2d6d415b85acef810000000083106112b6576d04ee2d6d415b85acef8100000000830492506020015b662386f26fc1000083106112d457662386f26fc10000830492506010015b6305f5e10083106112ec576305f5e100830492506008015b612710831061130057612710830492506004015b60648310611312576064830492506002015b600a83106104005760010192915050565b6001600160e01b0319811681146109a657600080fd5b60006020828403121561134b57600080fd5b8135610f6781611323565b60005b83811015611371578181015183820152602001611359565b50506000910152565b60008151808452611392816020860160208601611356565b601f01601f19169290920160200192915050565b602081526000610f67602083018461137a565b6000602082840312156113cb57600080fd5b5035919050565b80356001600160a01b03811681146113e957600080fd5b919050565b6000806040838503121561140157600080fd5b61140a836113d2565b946020939093013593505050565b60008060006060848603121561142d57600080fd5b611436846113d2565b9250611444602085016113d2565b929592945050506040919091013590565b634e487b7160e01b600052604160045260246000fd5b60008067ffffffffffffffff84111561148657611486611455565b50604051601f19601f85018116603f0116810181811067ffffffffffffffff821117156114b5576114b5611455565b6040528381529050808284018510156114cd57600080fd5b83836020830137600060208583010152509392505050565b6000602082840312156114f757600080fd5b813567ffffffffffffffff81111561150e57600080fd5b8201601f8101841361151f57600080fd5b6109358482356020840161146b565b60006020828403121561154057600080fd5b610f67826113d2565b6000806040838503121561155c57600080fd5b611565836113d2565b91506020830135801515811461157a57600080fd5b809150509250929050565b6000806000806080858703121561159b57600080fd5b6115a4856113d2565b93506115b2602086016113d2565b925060408501359150606085013567ffffffffffffffff8111156115d557600080fd5b8501601f810187136115e657600080fd5b6115f58782356020840161146b565b91505092959194509250565b6000806040838503121561161457600080fd5b61161d836113d2565b915061162b602084016113d2565b90509250929050565b600181811c9082168061164857607f821691505b60208210810361166857634e487b7160e01b600052602260045260246000fd5b50919050565b601f82111561057b57806000526020600020601f840160051c810160208510156116955750805b601f840160051c820191505b81811015610ef057600081556001016116a1565b815167ffffffffffffffff8111156116cf576116cf611455565b6116e3816116dd8454611634565b8461166e565b6020601f82116001811461171757600083156116ff5750848201515b600019600385901b1c1916600184901b178455610ef0565b600084815260208120601f198516915b828110156117475787850151825560209485019460019092019101611727565b50848210156117655786840151600019600387901b60f8161c191681555b50505050600190811b01905550565b634e487b7160e01b600052601160045260246000fd5b8082018082111561040057610400611774565b808202811582820484141761040057610400611774565b6000600182016117c6576117c6611774565b5060010190565b60008084546117db81611634565b6001821680156117f2576001811461180757611837565b60ff1983168652811515820286019350611837565b87600052602060002060005b8381101561182f57815488820152600190910190602001611813565b505081860193505b505050835161184a818360208801611356565b64173539b7b760d91b9101908152600501949350505050565b60008351611875818460208801611356565b835190830190611889818360208801611356565b01949350505050565b634e487b7160e01b600052601260045260246000fd5b6000826118b7576118b7611892565b500490565b6000826118cb576118cb611892565b500690565b6000816118df576118df611774565b506000190190565b634e487b7160e01b600052603260045260246000fd5b6001600160a01b03858116825284166020820152604081018390526080606082018190526000906119309083018461137a565b9695505050505050565b60006020828403121561194c57600080fd5b8151610f678161132356fea26469706673582212209f707a815a97ce847a2b693f13c04a0368ebb635efd6a51253e64cb11b879dc264736f6c634300081b0033",
  "linkReferences": {},
  "deployedLinkReferences": {}
}